{
  "_format": "hh-sol-artifact-1",
  "contractName": "Voting",
  "sourceName": "contracts/VotingContract.sol",
  "abi": [
    {
      "inputs": [
        {
          "internalType": "string[]",
          "name": "_candidateNames",
          "type": "string[]"
        },
        {
          "internalType": "uint256",
          "name": "_durationMinutes",
          "type": "uint256"
        }
      ],
      "stateMutability": "nonpayable",
      "type": "constructor"
    },
    {
      "inputs": [
        {
          "internalType": "string",
          "name": "_name",
          "type": "string"
        }
      ],
      "name": "addCandidate",
      "outputs": [],
      "stateMutability": "nonpayable",
      "type": "function"
    },
    {
      "inputs": [
        {
          "internalType": "uint256",
          "name": "",
          "type": "uint256"
        }
      ],
      "name": "candidates",
      "outputs": [
        {
          "internalType": "string",
          "name": "name",
          "type": "string"
        },
        {
          "internalType": "uint256",
          "name": "voteCount",
          "type": "uint256"
        }
      ],
      "stateMutability": "view",
      "type": "function"
    },
    {
      "inputs": [],
      "name": "getAllVotesOfCandidates",
      "outputs": [
        {
          "components": [
            {
              "internalType": "string",
              "name": "name",
              "type": "string"
            },
            {
              "internalType": "uint256",
              "name": "voteCount",
              "type": "uint256"
            }
          ],
          "internalType": "struct Voting.Candidate[]",
          "name": "",
          "type": "tuple[]"
        }
      ],
      "stateMutability": "view",
      "type": "function"
    },
    {
      "inputs": [],
      "name": "getRemainingTime",
      "outputs": [
        {
          "internalType": "uint256",
          "name": "",
          "type": "uint256"
        }
      ],
      "stateMutability": "view",
      "type": "function"
    },
    {
      "inputs": [],
      "name": "getVotingStatus",
      "outputs": [
        {
          "internalType": "bool",
          "name": "",
          "type": "bool"
        }
      ],
      "stateMutability": "view",
      "type": "function"
    },
    {
      "inputs": [
        {
          "internalType": "uint256",
          "name": "_candidateIndex",
          "type": "uint256"
        }
      ],
      "name": "vote",
      "outputs": [],
      "stateMutability": "nonpayable",
      "type": "function"
    },
    {
      "inputs": [
        {
          "internalType": "address",
          "name": "",
          "type": "address"
        }
      ],
      "name": "voters",
      "outputs": [
        {
          "internalType": "bool",
          "name": "",
          "type": "bool"
        }
      ],
      "stateMutability": "view",
      "type": "function"
    },
    {
      "inputs": [],
      "name": "votingEnd",
      "outputs": [
        {
          "internalType": "uint256",
          "name": "",
          "type": "uint256"
        }
      ],
      "stateMutability": "view",
      "type": "function"
    },
    {
      "inputs": [],
      "name": "votingStart",
      "outputs": [
        {
          "internalType": "uint256",
          "name": "",
          "type": "uint256"
        }
      ],
      "stateMutability": "view",
      "type": "function"
    }
  ],
  "bytecode": "0x60806040523480156200001157600080fd5b5060405162001a5738038062001a57833981810160405281019062000037919062000419565b60005b8251811015620000dc57600060405180604001604052808584815181106200006757620000666200047f565b5b60200260200101518152602001600081525090806001815401808255809150506001900390600052602060002090600202016000909190919091506000820151816000019081620000b99190620006ef565b506020820151816001015550508080620000d39062000805565b9150506200003a565b5033600160006101000a81548173ffffffffffffffffffffffffffffffffffffffff021916908373ffffffffffffffffffffffffffffffffffffffff16021790555042600381905550603c8162000134919062000852565b426200014191906200089d565b6004819055505050620008d8565b6000604051905090565b600080fd5b600080fd5b600080fd5b6000601f19601f8301169050919050565b7f4e487b7100000000000000000000000000000000000000000000000000000000600052604160045260246000fd5b620001b38262000168565b810181811067ffffffffffffffff82111715620001d557620001d462000179565b5b80604052505050565b6000620001ea6200014f565b9050620001f88282620001a8565b919050565b600067ffffffffffffffff8211156200021b576200021a62000179565b5b602082029050602081019050919050565b600080fd5b600080fd5b600067ffffffffffffffff82111562000254576200025362000179565b5b6200025f8262000168565b9050602081019050919050565b60005b838110156200028c5780820151818401526020810190506200026f565b60008484015250505050565b6000620002af620002a98462000236565b620001de565b905082815260208101848484011115620002ce57620002cd62000231565b5b620002db8482856200026c565b509392505050565b600082601f830112620002fb57620002fa62000163565b5b81516200030d84826020860162000298565b91505092915050565b60006200032d6200032784620001fd565b620001de565b905080838252602082019050602084028301858111156200035357620003526200022c565b5b835b81811015620003a157805167ffffffffffffffff8111156200037c576200037b62000163565b5b8086016200038b8982620002e3565b8552602085019450505060208101905062000355565b5050509392505050565b600082601f830112620003c357620003c262000163565b5b8151620003d584826020860162000316565b91505092915050565b6000819050919050565b620003f381620003de565b8114620003ff57600080fd5b50565b6000815190506200041381620003e8565b92915050565b6000806040838503121562000433576200043262000159565b5b600083015167ffffffffffffffff8111156200045457620004536200015e565b5b6200046285828601620003ab565b9250506020620004758582860162000402565b9150509250929050565b7f4e487b7100000000000000000000000000000000000000000000000000000000600052603260045260246000fd5b600081519050919050565b7f4e487b7100000000000000000000000000000000000000000000000000000000600052602260045260246000fd5b600060028204905060018216806200050157607f821691505b602082108103620005175762000516620004b9565b5b50919050565b60008190508160005260206000209050919050565b60006020601f8301049050919050565b600082821b905092915050565b600060088302620005817fffffffffffffffffffffffffffffffffffffffffffffffffffffffffffffffff8262000542565b6200058d868362000542565b95508019841693508086168417925050509392505050565b6000819050919050565b6000620005d0620005ca620005c484620003de565b620005a5565b620003de565b9050919050565b6000819050919050565b620005ec83620005af565b62000604620005fb82620005d7565b8484546200054f565b825550505050565b600090565b6200061b6200060c565b62000628818484620005e1565b505050565b5b8181101562000650576200064460008262000611565b6001810190506200062e565b5050565b601f8211156200069f5762000669816200051d565b620006748462000532565b8101602085101562000684578190505b6200069c620006938562000532565b8301826200062d565b50505b505050565b600082821c905092915050565b6000620006c460001984600802620006a4565b1980831691505092915050565b6000620006df8383620006b1565b9150826002028217905092915050565b620006fa82620004ae565b67ffffffffffffffff81111562000716576200071562000179565b5b620007228254620004e8565b6200072f82828562000654565b600060209050601f83116001811462000767576000841562000752578287015190505b6200075e8582620006d1565b865550620007ce565b601f19841662000777866200051d565b60005b82811015620007a1578489015182556001820191506020850194506020810190506200077a565b86831015620007c15784890151620007bd601f891682620006b1565b8355505b6001600288020188555050505b505050505050565b7f4e487b7100000000000000000000000000000000000000000000000000000000600052601160045260246000fd5b60006200081282620003de565b91507fffffffffffffffffffffffffffffffffffffffffffffffffffffffffffffffff8203620008475762000846620007d6565b5b600182019050919050565b60006200085f82620003de565b91506200086c83620003de565b92508282026200087c81620003de565b91508282048414831517620008965762000895620007d6565b5b5092915050565b6000620008aa82620003de565b9150620008b783620003de565b9250828201905080821115620008d257620008d1620007d6565b5b92915050565b61116f80620008e86000396000f3fe608060405234801561001057600080fd5b50600436106100935760003560e01c8063581c281c11610066578063581c281c1461011f57806385a386351461013d57806390a9ab901461015b578063a3ec138d14610179578063efb98bcf146101a957610093565b80630121b93f14610098578063101158af146100b45780633477ee2e146100d2578063462e91ec14610103575b600080fd5b6100b260048036038101906100ad91906106db565b6101c7565b005b6100bc610331565b6040516100c99190610717565b60405180910390f35b6100ec60048036038101906100e791906106db565b610337565b6040516100fa9291906107c2565b60405180910390f35b61011d60048036038101906101189190610927565b6103f3565b005b6101276104e9565b604051610134919061098b565b60405180910390f35b610145610503565b6040516101529190610717565b60405180910390f35b610163610509565b6040516101709190610afe565b60405180910390f35b610193600480360381019061018e9190610b7e565b610604565b6040516101a0919061098b565b60405180910390f35b6101b1610624565b6040516101be9190610717565b60405180910390f35b600260003373ffffffffffffffffffffffffffffffffffffffff1673ffffffffffffffffffffffffffffffffffffffff16815260200190815260200160002060009054906101000a900460ff1615610254576040517f08c379a000000000000000000000000000000000000000000000000000000000815260040161024b90610bf7565b60405180910390fd5b600080549050811061029b576040517f08c379a000000000000000000000000000000000000000000000000000000000815260040161029290610c63565b60405180910390fd5b600081815481106102af576102ae610c83565b5b906000526020600020906002020160010160008154809291906102d190610ce1565b91905055506001600260003373ffffffffffffffffffffffffffffffffffffffff1673ffffffffffffffffffffffffffffffffffffffff16815260200190815260200160002060006101000a81548160ff02191690831515021790555050565b60035481565b6000818154811061034757600080fd5b906000526020600020906002020160009150905080600001805461036a90610d58565b80601f016020809104026020016040519081016040528092919081815260200182805461039690610d58565b80156103e35780601f106103b8576101008083540402835291602001916103e3565b820191906000526020600020905b8154815290600101906020018083116103c657829003601f168201915b5050505050908060010154905082565b600160009054906101000a900473ffffffffffffffffffffffffffffffffffffffff1673ffffffffffffffffffffffffffffffffffffffff163373ffffffffffffffffffffffffffffffffffffffff1614610483576040517f08c379a000000000000000000000000000000000000000000000000000000000815260040161047a90610dfb565b60405180910390fd5b600060405180604001604052808381526020016000815250908060018154018082558091505060019003906000526020600020906002020160009091909190915060008201518160000190816104d99190610fc7565b5060208201518160010155505050565b600060035442101580156104fe575060045442105b905090565b60045481565b60606000805480602002602001604051908101604052809291908181526020016000905b828210156105fb578382906000526020600020906002020160405180604001604052908160008201805461056090610d58565b80601f016020809104026020016040519081016040528092919081815260200182805461058c90610d58565b80156105d95780601f106105ae576101008083540402835291602001916105d9565b820191906000526020600020905b8154815290600101906020018083116105bc57829003601f168201915b505050505081526020016001820154815250508152602001906001019061052d565b50505050905090565b60026020528060005260406000206000915054906101000a900460ff1681565b600060035442101561066b576040517f08c379a0000000000000000000000000000000000000000000000000000000008152600401610662906110e5565b60405180910390fd5b600454421061067d576000905061068e565b4260045461068b9190611105565b90505b90565b6000604051905090565b600080fd5b600080fd5b6000819050919050565b6106b8816106a5565b81146106c357600080fd5b50565b6000813590506106d5816106af565b92915050565b6000602082840312156106f1576106f061069b565b5b60006106ff848285016106c6565b91505092915050565b610711816106a5565b82525050565b600060208201905061072c6000830184610708565b92915050565b600081519050919050565b600082825260208201905092915050565b60005b8381101561076c578082015181840152602081019050610751565b60008484015250505050565b6000601f19601f8301169050919050565b600061079482610732565b61079e818561073d565b93506107ae81856020860161074e565b6107b781610778565b840191505092915050565b600060408201905081810360008301526107dc8185610789565b90506107eb6020830184610708565b9392505050565b600080fd5b600080fd5b7f4e487b7100000000000000000000000000000000000000000000000000000000600052604160045260246000fd5b61083482610778565b810181811067ffffffffffffffff82111715610853576108526107fc565b5b80604052505050565b6000610866610691565b9050610872828261082b565b919050565b600067ffffffffffffffff821115610892576108916107fc565b5b61089b82610778565b9050602081019050919050565b82818337600083830152505050565b60006108ca6108c584610877565b61085c565b9050828152602081018484840111156108e6576108e56107f7565b5b6108f18482856108a8565b509392505050565b600082601f83011261090e5761090d6107f2565b5b813561091e8482602086016108b7565b91505092915050565b60006020828403121561093d5761093c61069b565b5b600082013567ffffffffffffffff81111561095b5761095a6106a0565b5b610967848285016108f9565b91505092915050565b60008115159050919050565b61098581610970565b82525050565b60006020820190506109a0600083018461097c565b92915050565b600081519050919050565b600082825260208201905092915050565b6000819050602082019050919050565b600082825260208201905092915050565b60006109ee82610732565b6109f881856109d2565b9350610a0881856020860161074e565b610a1181610778565b840191505092915050565b610a25816106a5565b82525050565b60006040830160008301518482036000860152610a4882826109e3565b9150506020830151610a5d6020860182610a1c565b508091505092915050565b6000610a748383610a2b565b905092915050565b6000602082019050919050565b6000610a94826109a6565b610a9e81856109b1565b935083602082028501610ab0856109c2565b8060005b85811015610aec5784840389528151610acd8582610a68565b9450610ad883610a7c565b925060208a01995050600181019050610ab4565b50829750879550505050505092915050565b60006020820190508181036000830152610b188184610a89565b905092915050565b600073ffffffffffffffffffffffffffffffffffffffff82169050919050565b6000610b4b82610b20565b9050919050565b610b5b81610b40565b8114610b6657600080fd5b50565b600081359050610b7881610b52565b92915050565b600060208284031215610b9457610b9361069b565b5b6000610ba284828501610b69565b91505092915050565b7f596f75206861766520616c726561647920766f74656420212121000000000000600082015250565b6000610be1601a8361073d565b9150610bec82610bab565b602082019050919050565b60006020820190508181036000830152610c1081610bd4565b9050919050565b7f496e76616c69642063616e64696461746520696e646578000000000000000000600082015250565b6000610c4d60178361073d565b9150610c5882610c17565b602082019050919050565b60006020820190508181036000830152610c7c81610c40565b9050919050565b7f4e487b7100000000000000000000000000000000000000000000000000000000600052603260045260246000fd5b7f4e487b7100000000000000000000000000000000000000000000000000000000600052601160045260246000fd5b6000610cec826106a5565b91507fffffffffffffffffffffffffffffffffffffffffffffffffffffffffffffffff8203610d1e57610d1d610cb2565b5b600182019050919050565b7f4e487b7100000000000000000000000000000000000000000000000000000000600052602260045260246000fd5b60006002820490506001821680610d7057607f821691505b602082108103610d8357610d82610d29565b5b50919050565b7f4f6e6c7920746865206f776e65722063616e2063616c6c20746869732066756e60008201527f6374696f6e000000000000000000000000000000000000000000000000000000602082015250565b6000610de560258361073d565b9150610df082610d89565b604082019050919050565b60006020820190508181036000830152610e1481610dd8565b9050919050565b60008190508160005260206000209050919050565b60006020601f8301049050919050565b600082821b905092915050565b600060088302610e7d7fffffffffffffffffffffffffffffffffffffffffffffffffffffffffffffffff82610e40565b610e878683610e40565b95508019841693508086168417925050509392505050565b6000819050919050565b6000610ec4610ebf610eba846106a5565b610e9f565b6106a5565b9050919050565b6000819050919050565b610ede83610ea9565b610ef2610eea82610ecb565b848454610e4d565b825550505050565b600090565b610f07610efa565b610f12818484610ed5565b505050565b5b81811015610f3657610f2b600082610eff565b600181019050610f18565b5050565b601f821115610f7b57610f4c81610e1b565b610f5584610e30565b81016020851015610f64578190505b610f78610f7085610e30565b830182610f17565b50505b505050565b600082821c905092915050565b6000610f9e60001984600802610f80565b1980831691505092915050565b6000610fb78383610f8d565b9150826002028217905092915050565b610fd082610732565b67ffffffffffffffff811115610fe957610fe86107fc565b5b610ff38254610d58565b610ffe828285610f3a565b600060209050601f831160018114611031576000841561101f578287015190505b6110298582610fab565b865550611091565b601f19841661103f86610e1b565b60005b8281101561106757848901518255600182019150602085019450602081019050611042565b868310156110845784890151611080601f891682610f8d565b8355505b6001600288020188555050505b505050505050565b7f566f74696e6720686173206e6f74207374617274656420796574202121210000600082015250565b60006110cf601e8361073d565b91506110da82611099565b602082019050919050565b600060208201905081810360008301526110fe816110c2565b9050919050565b6000611110826106a5565b915061111b836106a5565b925082820390508181111561113357611132610cb2565b5b9291505056fea2646970667358221220feb2db303209c93469b34d7b0d4676db4f85b6f576d21e4e07716069258ec72464736f6c63430008130033",
  "linkReferences": {},
  "deployedLinkReferences": {}
}